:020000040000FA
:100000000C94F3000C941B010C941B010C941B0129
:100010000C941B010C941B010C941B010C941B01F0
:100020000C941B010C941B010C941B010C94860571
:100030000C941B010C941B010C941B010C941B01D0
:100040000C943C050C941B010C940A050C94E404DC
:100050000C941B010C941B010C941B010C941B01B0
:100060000C941B010C941B010000000024002700CD
:100070002A000000000023002600290000000008DC
:10008000000201000003040700000000000000005F
:1000900000000000250028002B00010204081020A9
:1000A000408001020408102001020408102004040A
:1000B0000404040404040202020202020303030310
:1000C00003032073657474696E6720706F696E74C2
:1000D0007320006175746F6D61746963206D6F6466
:1000E0006520656E61626C65640072656172207482
:1000F0007261636B20697320676F0066726F6E7444
:1001000020747261636B20697320676F0074726181
:10011000696E20697320726561647920746F206450
:1001200065706172742100747261696E2068617318
:10013000206C656674207468652073746174696FDF
:100140006E00706F696E74732061726520736574E0
:100150000D0A747261696E20646570617274696EF3
:100160006700747261696E206861732072656163F3
:10017000686564207468652073746174696F6E00CB
:1001800077616974696E6720666F72207472616945
:100190006E20746F207265616368207468652073D7
:1001A000746174696F6E20616761696E0074726159
:1001B000696E206861732073746F707065642C20A1
:1001C00072657374617274696E67206379636C65BC
:1001D00000736C6F77696E6720646F776E2074723E
:1001E00061696E00420611241FBECFEFD8E0DEBF6A
:1001F000CDBF11E0A0E0B1E0E4E8F8E102C0059075
:100200000D92A631B107D9F722E0A6E1B1E001C015
:100210001D92A235B207E1F710E0C3EFD0E004C0B1
:100220002197FE010E943A0CC23FD107C9F70E94F4
:100230002B070C94400C0C940000AF92BF92CF920D
:10024000DF92EF92FF920F931F93CF93DF936C0196
:100250007B018B01040F151FEB015E01AE18BF0877
:10026000C017D10759F06991D601ED91FC91019029
:10027000F081E02DC6010995892B79F7C501DF9141
:10028000CF911F910F91FF90EF90DF90CF90BF9093
:10029000AF900895FC01538D448D252F30E0842FBD
:1002A00090E0821B930B541710F0CF96089501979E
:1002B0000895FC01918D828D981761F0A28DAE0F8B
:1002C000BF2FB11D5D968C91928D9F5F9F73928F12
:1002D00090E008958FEF9FEF0895FC01918D828D3E
:1002E000981731F0828DE80FF11D858D90E008950B
:1002F0008FEF9FEF0895FC01918D228D892F90E063
:10030000805C9F4F821B91098F73992708958CE31E
:1003100091E00E947B0121E0892B09F420E0822FEB
:10032000089580E090E0892B29F00E9487018111D7
:100330000C9400000895FC01A48DA80FB92FB11DE5
:10034000A35ABF4F2C91848D90E001968F7399270B
:10035000848FA689B7892C93A089B1898C918370E9
:1003600080648C93938D848D981306C00288F389E2
:10037000E02D80818F7D80830895EF92FF920F930F
:100380001F93CF93DF93EC0181E0888F9B8D8C8D41
:1003900098131AC0E889F989808185FF15C09FB735
:1003A000F894EE89FF896083E889F98980818370F8
:1003B000806480839FBF81E090E0DF91CF911F91A7
:1003C0000F91FF90EF900895F62E0B8D10E00F5FC8
:1003D0001F4F0F731127E02E8C8D8E110CC00FB69E
:1003E00007FCFACFE889F989808185FFF5CFCE0136
:1003F0000E949B01F1CFEB8DEC0FFD2FF11DE35A15
:10040000FF4FF0829FB7F8940B8FEA89FB898081B8
:100410008062CFCF0F931F93CF93DF938C01D0E0F7
:10042000C0E0F801EC0FFD1F6491662341F08CE3FE
:1004300091E00E94BD01892B11F02196F2CF42E09C
:1004400050E062E171E08CE391E00E941D018C0FAD
:100450009D1FDF91CF911F910F910895CF93DF934F
:10046000EC01888D8823B9F0AA89BB89E889F989CC
:100470008C9185FD03C0808186FD0DC00FB607FC01
:10048000F7CF8C9185FFF2CF808185FFEDCFCE0134
:100490000E949B01E9CFDF91CF910895833081F0D5
:1004A00028F4813099F08230A9F008958730A9F0BE
:1004B0008830C9F08430B1F4809180008F7D03C012
:1004C000809180008F7780938000089584B58F7726
:1004D00084BD089584B58F7DFBCF8091B0008F7768
:1004E0008093B00008958091B0008F7DF9CFCF93B5
:1004F000DF93282F30E0F901E458FF4F8491F90190
:10050000E656FF4FD491F901E255FF4FC491CC2339
:10051000A1F081110E944E02EC2FF0E0EE0FFF1FC0
:10052000EE58FF4FA591B491EC91ED2381E090E05E
:1005300009F480E0DF91CF91089580E090E0FACF58
:100540001F93CF93DF93282F30E0F901E458FF4F3A
:100550008491F901E656FF4FD491F901E255FF4F1E
:10056000C491CC23A9F0162F81110E944E02EC2FCA
:10057000F0E0EE0FFF1FE057FF4FA591B4918FB74A
:10058000F894EC91111108C0D095DE23DC938FBF55
:10059000DF91CF911F910895DE2BF8CFCF93DF939A
:1005A00090E0FC01E656FF4F249182559F4FFC01DD
:1005B00084918823C9F090E0880F991FFC01E859C5
:1005C000FF4FA591B491FC01E057FF4FC591D49125
:1005D00061110DC09FB7F8948C91209582238C9364
:1005E0008881282328839FBFDF91CF9108956230AF
:1005F00051F49FB7F8943C91822F809583238C937C
:10060000E8812E2BEFCF8FB7F894EC912E2B2C9303
:100610008FBFEACF8E50806480937C0080917A00F7
:10062000806480937A0080917A0086FDFCCF80916F
:1006300078009091790008952FB7F894609118018F
:100640007091190180911A0190911B012FBF08959B
:10065000CF92DF92EF92FF92CF93DF93EC01603263
:1006600082E07807CCF5653B710514F064EB70E02F
:10067000898128E830E0281B310987FD3395220F56
:10068000331F220F331F6901330FEE08FF088A81E1
:1006900028E532E0281B310987FD3395220F331FEF
:1006A000220F331F032E000C440B550B2C193D0950
:1006B0004E095F09DB0177FF02C0B0E0A0E00E94B5
:1006C000C60B24EB30E040E050E00E949C0BC20ED1
:1006D000D31EE41EF51EB601E881EC3070F52981C9
:1006E00088E890E0821B910927FD9395880F991F58
:1006F000880F991F681779077CF02A8188E592E0B6
:10070000821B910927FD9395880F991F880F991FC8
:10071000681779070CF4CB010297880F991F4FB720
:10072000F8942E2F30E0F901EE0FFF1FE20FF31FB8
:10073000E752FE4F928381834FBFDF91CF91FF90AD
:10074000EF90DF90CF900895892B79F4109280007C
:1007500082E0809381001092850010928400B19A0B
:1007600080916F00826080936F000895CF93DF9334
:10077000EC010E941C032B85620F711D811D911DD0
:100780006B837C838D839E8398858F819923B9F1B8
:100790009D85891710F48F5F8F839F8189858917C5
:1007A00099F199878D85981719F08C85981310C049
:1007B0008989813069F4E8812E2F30E0F901EE0F4C
:1007C000FF1FE20FF31FE752FE4F80818F7B808374
:1007D0008F85882341F088892E8560E0921708F084
:1007E00061E00E94A0028A858F3F29F06F8170E04E
:1007F000CE010E9428038F81DF91CF9108959C85BF
:10080000981758F68150C8CF80E0F6CF1F93CF934A
:10081000DF93EC0168878989882309F445C08881C2
:100820008C3008F041C01A8561E0812F0E94CE0211
:100830008881282F30E0F901EE0FFF1FE20FF31F30
:10084000E752FE4F1F739081907C912B9083198209
:100850001A822CE0622F0E94FF0B829FB0011124AC
:1008600030E020E0AB01420F531FFA01EE0FFF1FF3
:10087000E40FF51FE752FE4F908196FD08C02F5FF1
:100880003F4F2C30310571F790E00E94A403E881BE
:100890008E2F90E0FC01EE0FFF1FE80FF91FE752CB
:1008A000FE4F808180648083DF91CF911F910895F6
:1008B0001F93CF93DF93EC018A858F3F09F44AC0E1
:1008C0006F8170E0CE010E94280388818C3008F08F
:1008D00041C01A8561E0812F0E94CE028881282FB5
:1008E00030E0F901EE0FFF1FE20FF31FE752FE4F5A
:1008F0001F739081907C912B908319821A822CE037
:10090000622F0E94FF0B829FB001112430E020E093
:10091000AB01420F531FFA01EE0FFF1FE40FF51F4B
:10092000E752FE4F908196FD08C02F5F3F4F2C305D
:10093000310571F790E00E94A403E8818E2F90E0CA
:10094000FC01EE0FFF1FE80FF91FE752FE4F8081F9
:10095000806480838F85882339F061E08889DF9106
:10096000CF911F910C94CE02DF91CF911F910895EA
:10097000CF93DF93EC0189810E9477029C0191E083
:100980002115310509F490E08A81891309C08B8112
:10099000891751F09B8383E0232B09F482E088833D
:1009A0009A83DF91CF91089581E0232BC1F71882BC
:1009B000F7CFFC018081833011F491E09083908126
:1009C000923009F4108208951F920F920FB60F9281
:1009D00011242F933F934F935F936F937F938F9344
:1009E0009F93AF93BF93EF93FF938CE391E00E94AB
:1009F0009B01FF91EF91BF91AF919F918F917F915B
:100A00006F915F914F913F912F910F900FBE0F907B
:100A10001F9018951F920F920FB60F9211242F93CB
:100A20008F939F93EF93FF93E0914C01F0914D01D1
:100A30008081E0915201F091530182FD1BC09081B1
:100A4000809155018F5F8F7320915601821741F07D
:100A5000E0915501F0E0E45CFE4F958F80935501E5
:100A6000FF91EF919F918F912F910F900FBE0F905B
:100A70001F9018958081F4CF1F920F920FB60F929E
:100A800011242F933F938F939F93AF93BF938091A4
:100A9000180190911901A0911A01B0911B01309198
:100AA000170123E0230F2D3758F50196A11DB11D25
:100AB000209317018093180190931901A0931A01B4
:100AC000B0931B018091240190912501A0912601F2
:100AD000B09127010196A11DB11D8093240190932F
:100AE0002501A0932601B0932701BF91AF919F915B
:100AF0008F913F912F910F900FBE0F901F901895DF
:100B000026E8230F0296A11DB11DD2CF1F920F928E
:100B10000FB60F9211242F933F934F935F936F93D0
:100B20007F938F939F93AF93BF93CF93DF93EF9375
:100B3000FF9380911601C091FD01D0E087FF24C092
:100B40001092850010928400809116018F5F80932F
:100B5000160180911601082E000C990B8C179D0729
:100B600024F4809116018C30C4F18091840090911E
:100B70008500049680349C4908F47AC080918400F2
:100B800090918500049676C080911601082E000C85
:100B9000990B8C179D07C4F6E09116018E2FEE0F6E
:100BA000990BFC01EE0FFF1FE80FF91FE752FE4FF4
:100BB000808186FFC9CFE09116018E2FEE0F990B31
:100BC000FC01EE0FFF1FE80FF91FE752FE4F808177
:100BD00060E08F730E94A002B7CF20918400309113
:100BE0008500E09116018E2FEE0F990BFC01EE0FA0
:100BF000FF1FE80FF91FE752FE4F81819281820F9C
:100C0000931F9093890080938800E09116018E2FA6
:100C1000EE0F990BFC01EE0FFF1FE80FF91FE752D3
:100C2000FE4F808186FF11C0E09116018E2FEE0FDE
:100C3000990BFC01EE0FFF1FE80FF91FE752FE4F63
:100C4000808161E08F730E94A002FF91EF91DF919C
:100C5000CF91BF91AF919F918F917F916F915F9154
:100C60004F913F912F910F900FBE0F901F901895AD
:100C700080E49CE990938900809388008FEF8093B3
:100C80001601E3CF10923F0110923E0188EE93E0EF
:100C9000A0E0B0E08093400190934101A093420115
:100CA000B093430184E091E090933D0180933C0137
:100CB00085EC90E0909349018093480184EC90E0AA
:100CC00090934B0180934A0180EC90E090934D010A
:100CD00080934C0181EC90E090934F0180934E0102
:100CE00082EC90E0909351018093500186EC90E06B
:100CF0009093530180935201109255011092560126
:100D00001092570110925801109250021092510205
:100D100062E080E10E94CE0280E180934F02109257
:100D20004C0210924D0262E081E10E94CE0281E10C
:100D300080934B02109248021092490262E082E1D5
:100D40000E94CE0282E180934702109244021092E8
:100D5000450262E087E00E94CE0287E08093430272
:100D600084E0809339028091FD018C3008F06BC0E3
:100D700091E0980F9093FD018093200290E0FC0198
:100D8000EE0FFF1FE80FF91FE752FE4F88EB9BE0C5
:100D9000928381830E941C0360933202709333021A
:100DA000809334029093350288E080932A028AE08F
:100DB00080932B028BE480932C0289E680932D0292
:100DC0008AE580932E028093270281E0809331028E
:100DD0008091FD018C30D8F591E0980F9093FD0142
:100DE00080930A0290E0FC01EE0FFF1FE80FF91F4D
:100DF000E752FE4F88EB9BE0928381830E941C03A5
:100E000060931C0270931D0280931E0290931F0238
:100E100089E0809314028AE0809315028BE480932A
:100E2000160289E6809317028AE580931802809360
:100E3000110281E080931B02109209028093FE014F
:100E40001092000208958FEF80932002A3CF8FEFBE
:100E500080930A02D3CFCF93DF9300D000D0CDB7D9
:100E6000DEB7789484B5826084BD84B5816084BD2A
:100E700085B5826085BD85B5816085BD80916E0038
:100E8000816080936E001092810080918100826069
:100E900080938100809181008160809381008091A6
:100EA00080008160809380008091B1008460809395
:100EB000B1008091B00081608093B00080917A0091
:100EC000846080937A0080917A00826080937A00B7
:100ED00080917A00816080937A0080917A008068A6
:100EE00080937A001092C10061E082E00E94CE02FD
:100EF00061E083E00E94CE0261E084E00E94CE02C5
:100F000061E085E00E94CE0261E086E00E94CE02B0
:100F100062E087E00E94CE0261E088E00E94CE029B
:100F200061E089E00E94CE0262E08AE00E94CE0287
:100F300062E08BE00E94CE0262E08CE00E94CE0272
:100F400061E08DE00E94CE0260E08FE00E94CE0260
:100F500062E080E10E94CE0262E081E10E94CE0266
:100F600062E082E10E94CE0260E083E10E94CE0254
:100F700060E084E10E94CE0260E085E10E94CE0242
:100F8000E0914C01F0914D0182E08083E0914801B5
:100F9000F09149011082E0914A01F0914B0180E10A
:100FA000808310925401E0915001F091510186E04C
:100FB0008083E0914E01F0914F01808180618083B8
:100FC000E0914E01F0914F01808188608083E09133
:100FD0004E01F0914F01808180688083E0914E0145
:100FE000F0914F0180818F7D808361E08091390293
:100FF0000E94CE022091390230E0F901E255FF4F04
:101000008491F901E656FF4FE491E0933902E82F0D
:10101000F0E0EE0FFF1FE057FF4F85919491909302
:10102000400280933F02882483948092410280E2B0
:1010300092E00E9458048AE092E00E94580460E026
:1010400080E292E00E94060460E08AE092E00E9462
:101050000604109200028092FE01809209028EE442
:1010600092E00E94B8048AE492E00E94B80486E408
:1010700092E00E94B804CC24CA9473E0D72EE12CED
:10108000F12CECE24E2E55245394612C712C50E03F
:10109000252E50E0352E84E00E947702892B21F125
:1010A0000E941C038090200190902101A0902201B9
:1010B000B09023019B01AC01281939094A095B0949
:1010C00049015A0132E383169104A104B10460F08E
:1010D000609320017093210180932201909323015A
:1010E00082E492E00E94B8040E941C0380901C01DC
:1010F00090901D01A0901E01B0901F019B01AC01BA
:10110000281939094A095B0949015A0134E1831652
:101110009104A104B104A0F060931C0170931D011F
:1011200080931E0190931F018EE492E00E94B80408
:101130008AE492E00E94B80486E492E00E94B80437
:101140008EE492E00E94D904809333018AE492E015
:101150000E94D9048093320186E492E00E94D9046F
:101160008093340182E492E00E94D90480933B0191
:101170000E941C0300912E0110912F01209130013B
:10118000309131014B015C01801A910AA20AB30A25
:1011900000913701109138012091390130913A01C5
:1011A00080169106A206B30608F445C060932E018E
:1011B00070932F018093300190933101809135011C
:1011C00090913601891718F48F5F809335018091D3
:1011D0003501981718F481508093350180913501BD
:1011E00090912D01891739F180932D01282F853693
:1011F00008F024E6209338028B3008F497C030E0E2
:1012000050E040E02A50310941095109A2E3B0E021
:101210000E94BB0B2AE530E040E050E00E949C0BAE
:101220002E5C622F70E080E197E20E940B0C7093BD
:10123000370260933602E0913F02F09140028091C4
:101240004102811175C09081809139028095892376
:1012500080830E941C03009123021091240220919C
:10126000250230912602061717072807390720F4B0
:1012700080E292E00E94B6030E941C0300910D02DE
:1012800010910E0220910F023091100206171707DD
:101290002807390720F48AE092E00E94B603809183
:1012A0003B0161E0882319F0813021F460E086E0A1
:1012B0000E94A0028091FF01811122C00E941C03A4
:1012C0000091010210910202209103023091040268
:1012D000601B710B820B930B0091050210910602AB
:1012E0002091070230910802601771078207930767
:1012F00018F081E08093FF018091FF01882351F075
:1013000080910902823009F491C108F082C08130D5
:1013100009F4EDC02114310409F4BDCE0E94870107
:10132000882309F4B4CE0E940000B1CE22E379CF25
:10133000EF2B09F48ECF3FB7F89480912401909160
:101340002501A0912601B091270126B5A89B05C0D3
:101350002F3F19F00196A11DB11D3FBFBA2FA92F34
:10136000982F8827820F911DA11DB11D42E0880F83
:10137000991FAA1FBB1F4A95D1F74091290150918F
:101380002A0160912B0170912C018C019D01041B9D
:10139000150B260B370B409136025091370270E047
:1013A00060E0041715072607370708F452CF80932B
:1013B000290190932A01A0932B01B0932C018091D5
:1013C000280181110DC090913802992349F0E091D4
:1013D0003F02F0914002908120913902922B90833C
:1013E00090913802891760F0943650F4E0913F02F2
:1013F000F091400220819091390290959223908340
:101400008F5F853618F48093280123CF109228012E
:1014100020CF843009F467C1853009F07BCF8091FB
:10142000FE011092FE01882321F18DE00E947702D7
:10143000019709F07FC184E10E940A0321E330E0B3
:10144000DC010E941F0CA70196010E949C0B2F5FDC
:101450003F4F4F4F5F4F20933701309338014093F8
:10146000390150933A011092360181ED91E00E94CA
:101470000A0280913501811103C081E0809300024E
:1014800080910002882361F060E085E00E94A00264
:1014900060E086E00E94A0028DEA91E00E940A02CC
:1014A00080910002882309F435CF1092000211E0E8
:1014B0001093FE011092FF010E941C036093010231
:1014C00070930202809303029093040288E8882EAE
:1014D00083E1982EA12CB12C8092050290920602F5
:1014E000A0920702B09208021093090213CF8091D4
:1014F000FE011092FE01882381F08DE091E00E94B0
:101500000A0280913401813041F461E085E00E945B
:10151000A00261E086E00E94A00280913301833046
:1015200041F090913201933021F09091340191116A
:1015300003C091E09093000290910002992309F476
:101540004BC0833061F48BEF90E00E940A0261E0AF
:101550008DE00E94A00260E086E00E94A0028091DF
:101560003201833061F48AEE90E00E940A0260E06A
:101570008DE00E94A00260E085E00E94A0028091C0
:10158000340181110EC083ED90E00E940A028DE0CB
:101590000E94770261E0892B09F060E08DE00E94F3
:1015A000A00282EC90E00E940A028DE00E94770285
:1015B0000197A9F561E080E292E00E94060460E0F4
:1015C00080E292E00E94060461E083E00E94A002B3
:1015D00060E082E00E94A00280910002882309F46A
:1015E00099CE1092000281E08093FE011092FF01DB
:1015F0000E941C0360930102709302028093030215
:1016000090930402409205025092060260920702F3
:101610007092080292E0992E909209027BCE60E0CF
:1016200080E292E00E94060461E0CACF8091FE0150
:101630001092FE01882311F183E10E940A0320E544
:1016400030E0DC010E941F0CA70196010E949C0B58
:101650002C5E3F4F4F4F5F4F2093360122E330E027
:1016600040E050E020933701309338014093390136
:1016700050933A0182E491E00E940A0280913B017A
:10168000833019F481E08093000280910002882366
:1016900021F087E291E00E940A02809100028823F3
:1016A00009F438CE1092000281E08093FE0110927E
:1016B000FF010E941C036093010270930202809359
:1016C00003029093040288EE93E0A0E0B0E08093E0
:1016D000050290930602A0930702B093080284E0EB
:1016E0008093090217CE8091FE011092FE0188239B
:1016F00021F080E891E00E940A0280913B01823053
:1017000019F481E08093000280910002882321F087
:1017100082E691E00E940A0280910002882309F487
:10172000F9CD1092000281E08093FE0195E0909344
:101730000902F0CD85E180CE052E97FB1EF40094C2
:101740000E94B30B57FD07D00E94CE0B07FC03D0BD
:101750004EF40C94B30B50954095309521953F4F26
:101760004F4F5F4F089590958095709561957F4F8D
:101770008F4F9F4F08950E94F00BA59F900DB49F2F
:10178000900DA49F800D911D11240895B7FF0C9416
:10179000BB0B0E94BB0B821B930B0895A1E21A2E78
:1017A000AA1BBB1BFD010DC0AA1FBB1FEE1FFF1F05
:1017B000A217B307E407F50720F0A21BB30BE40B55
:1017C000F50B661F771F881F991F1A9469F760959C
:1017D0007095809590959B01AC01BD01CF01089556
:1017E000A29FB001B39FC001A39F700D811D112462
:1017F000911DB29F700D811D1124911D0895991B9B
:1018000079E004C0991F961708F0961B881F7A95F7
:10181000C9F78095089597FB072E16F4009407D01A
:1018200077FD09D00E94260C07FC05D03EF4909568
:1018300081959F4F0895709561957F4F08950E94FF
:10184000F00BB7FF0895821B930B0895AA1BBB1BD7
:1018500051E107C0AA1FBB1FA617B70710F0A61BB0
:10186000B70B881F991F5A95A9F780959095BC01D1
:10187000CD010895EE0FFF1F0590F491E02D09941E
:10188000F894FFCF00000000BD011D014A012E02A7
:0A1890007B0159016D010D0A0000F3
:107E0000112484B714BE81FFF0D085E080938100F7
:107E100082E08093C00088E18093C10086E0809377
:107E2000C20080E18093C4008EE0C9D0259A86E02C
:107E300020E33CEF91E0309385002093840096BBD3
:107E4000B09BFECF1D9AA8958150A9F7CC24DD24C4
:107E500088248394B5E0AB2EA1E19A2EF3E0BF2EE7
:107E6000A2D0813461F49FD0082FAFD0023811F036
:107E7000013811F484E001C083E08DD089C08234E0
:107E800011F484E103C0853419F485E0A6D080C0E4
:107E9000853579F488D0E82EFF2485D0082F10E0AE
:107EA000102F00270E291F29000F111F8ED06801E7
:107EB0006FC0863521F484E090D080E0DECF843638
:107EC00009F040C070D06FD0082F6DD080E0C81688
:107ED00080E7D80618F4F601B7BEE895C0E0D1E017
:107EE00062D089930C17E1F7F0E0CF16F0E7DF06D8
:107EF00018F0F601B7BEE89568D007B600FCFDCFD4
:107F0000A601A0E0B1E02C9130E011968C91119780
:107F100090E0982F8827822B932B1296FA010C0160
:107F200087BEE89511244E5F5F4FF1E0A038BF0790
:107F300051F7F601A7BEE89507B600FCFDCF97BE46
:107F4000E89526C08437B1F42ED02DD0F82E2BD052
:107F50003CD0F601EF2C8F010F5F1F4F84911BD097
:107F6000EA94F801C1F70894C11CD11CFA94CF0C13
:107F7000D11C0EC0853739F428D08EE10CD085E9AC
:107F80000AD08FE07ACF813511F488E018D01DD067
:107F900080E101D065CF982F8091C00085FFFCCF94
:107FA0009093C60008958091C00087FFFCCF809118
:107FB000C00084FD01C0A8958091C6000895E0E648
:107FC000F0E098E1908380830895EDDF803219F02E
:107FD00088E0F5DFFFCF84E1DECF1F93182FE3DFCA
:107FE0001150E9F7F2DF1F91089580E0E8DFEE27F6
:047FF000FF270994CA
:027FFE00040479
:00000001FF
