:020000040000FA
:100000000C94F5000C941D010C941D010C941D0121
:100010000C941D010C941D010C941D010C941D01E8
:100020000C941D010C941D010C941D010C947E0573
:100030000C941D010C941D010C941D010C941D01C8
:100040000C9434050C941D010C9402050C94DC04F2
:100050000C941D010C941D010C941D010C941D01A8
:100060000C941D010C941D010000000024002700C9
:100070002A000000000023002600290000000008DC
:10008000000201000003040700000000000000005F
:1000900000000000250028002B00010204081020A9
:1000A000408001020408102001020408102004040A
:1000B0000404040404040202020202020303030310
:1000C00003032073657474696E6720706F696E74C2
:1000D0007320006175746F6D61746963206D6F6466
:1000E0006520656E61626C65640052454152205422
:1000F0005241434B20495320474F21210046524F44
:100100004E5420545241434B20495320474F212104
:1001100000747261696E2069732072656164792070
:10012000746F206465706172742100747261696E0D
:1001300020686173206C6566742074686520737430
:100140006174696F6E00706F696E7473206172659F
:10015000207365740D0A747261696E206465706144
:100160007274696E6700747261696E2068617320D1
:100170007265616368656420746865207374617476
:10018000696F6E0077616974696E6720666F7220AF
:10019000747261696E20746F207265616368207487
:1001A00068652073746174696F6E20616761696E40
:1001B00000747261696E206861732073746F70706F
:1001C00065642C2072657374617274696E67206354
:1001D00079636C6500736C6F77696E6720646F7705
:1001E0006E20747261696E003A0611241FBECFEF53
:1001F000D8E0DEBFCDBF11E0A0E0B1E0EEE5F9E16F
:1002000002C005900D92A433B107D9F722E0A4E310
:10021000B1E001C01D92A536B207E1F710E0C5EFCD
:10022000D0E004C02197FE010E94A70CC43FD10773
:10023000C9F70E9428070C94AD0C0C94000081E4CF
:1002400080937C0080917A00806480937A00809112
:100250007A0086FDFCCF8091780090917900089516
:10026000AF92BF92CF92DF92EF92FF920F931F93C4
:10027000CF93DF936C017B018B01040F151FEB0102
:100280005E01AE18BF08C017D10759F06991D601B9
:10029000ED91FC910190F081E02DC6010995892B2B
:1002A00079F7C501DF91CF911F910F91FF90EF90EA
:1002B000DF90CF90BF90AF900895FC01538D448D97
:1002C000252F30E0842F90E0821B930B541710F001
:1002D000CF96089501970895FC01918D828D98170E
:1002E00061F0A28DAE0FBF2FB11D5D968C91928DE6
:1002F0009F5F9F73928F90E008958FEF9FEF089517
:10030000FC01918D828D981731F0828DE80FF11DDF
:10031000858D90E008958FEF9FEF0895FC01918DFA
:10032000228D892F90E0805C9F4F821B91098F73F3
:10033000992708958EE491E00E948E0121E0892B97
:1003400009F420E0822F089580E090E0892B29F0C5
:100350000E949A0181110C9400000895FC01A48D63
:10036000A80FB92FB11DA35ABF4F2C91848D90E0D7
:1003700001968F739927848FA689B7892C93A089BA
:10038000B1898C91837080648C93938D848D981344
:1003900006C00288F389E02D80818F7D80830895D7
:1003A000EF92FF920F931F93CF93DF93EC0181E0C5
:1003B000888F9B8D8C8D98131AC0E889F98980816C
:1003C00085FF15C09FB7F894EE89FF896083E8899F
:1003D000F98980818370806480839FBF81E090E091
:1003E000DF91CF911F910F91FF90EF900895F62E1E
:1003F0000B8D10E00F5F1F4F0F731127E02E8C8DB8
:100400008E110CC00FB607FCFACFE889F9898081FC
:1004100085FFF5CFCE010E94AE01F1CFEB8DEC0F41
:10042000FD2FF11DE35AFF4FF0829FB7F8940B8F19
:10043000EA89FB8980818062CFCFCF93DF93EC0183
:10044000888D8823B9F0AA89BB89E889F9898C91BC
:1004500085FD03C0808186FD0DC00FB607FCF7CF78
:100460008C9185FFF2CF808185FFEDCFCE010E9478
:10047000AE01E9CFDF91CF910895833081F028F468
:10048000813099F08230A9F008958730A9F0883042
:10049000C9F08430B1F4809180008F7D03C08091D9
:1004A00080008F7780938000089584B58F7784BD16
:1004B000089584B58F7DFBCF8091B0008F778093B6
:1004C000B00008958091B0008F7DF9CFCF93DF9376
:1004D000282F30E0F901E458FF4F8491F901E656E6
:1004E000FF4FD491F901E255FF4FC491CC23A1F005
:1004F00081110E943D02EC2FF0E0EE0FFF1FEE583D
:10050000FF4FA591B491EC91ED2381E090E009F4C7
:1005100080E0DF91CF91089580E090E0FACF1F93C3
:10052000CF93DF93282F30E0F901E458FF4F8491F7
:10053000F901E656FF4FD491F901E255FF4FC491FE
:10054000CC23A9F0162F81110E943D02EC2FF0E080
:10055000EE0FFF1FE057FF4FA591B4918FB7F894AE
:10056000EC91111108C0D095DE23DC938FBFDF9191
:10057000CF911F910895DE2BF8CFCF93DF9390E0BA
:10058000FC01E656FF4F249182559F4FFC01849158
:100590008823C9F090E0880F991FFC01E859FF4FAC
:1005A000A591B491FC01E057FF4FC591D491611121
:1005B0000DC09FB7F8948C91209582238C938881ED
:1005C000282328839FBFDF91CF910895623051F493
:1005D0009FB7F8943C91822F809583238C93E88178
:1005E0002E2BEFCF8FB7F894EC912E2B2C938FBF3F
:1005F000EACF2FB7F894609136017091370180915E
:100600003801909139012FBF0895CF92DF92EF9278
:10061000FF92CF93DF93EC01603282E07807CCF554
:10062000653B710514F064EB70E0898128E830E0E7
:10063000281B310987FD3395220F331F220F331FEB
:100640006901330FEE08FF088A8128E532E0281B94
:10065000310987FD3395220F331F220F331F032EDD
:10066000000C440B550B2C193D094E095F09DB01A9
:1006700077FF02C0B0E0A0E00E94230C24EB30E042
:1006800040E050E00E94F90BC20ED31EE41EF51E9E
:10069000B601E881EC3070F5298188E890E0821B92
:1006A000910927FD9395880F991F880F991F681747
:1006B00079077CF02A8188E592E0821B910927FD69
:1006C0009395880F991F880F991F681779070CF465
:1006D000CB010297880F991F4FB7F8942E2F30E067
:1006E000F901EE0FFF1FE20FF31FE551FE4F92835A
:1006F00081834FBFDF91CF91FF90EF90DF90CF903C
:100700000895892B79F41092800082E08093810013
:100710001092850010928400B19A80916F008260DF
:1007200080936F000895CF93DF93EC010E94F9024C
:100730002B85620F711D811D911D6B837C838D83C1
:100740009E8398858F819923B9F19D85891710F42F
:100750008F5F8F839F818985891799F199878D850F
:10076000981719F08C85981310C08989813069F425
:10077000E8812E2F30E0F901EE0FFF1FE20FF31F8B
:10078000E551FE4F80818F7B80838F85882341F0E8
:1007900088892E8560E0921708F061E00E948F0240
:1007A0008A858F3F29F06F8170E0CE010E9405039A
:1007B0008F81DF91CF9108959C85981758F68150CD
:1007C000C8CF80E0F6CF1F93CF93DF93EC0168870B
:1007D0008989882309F445C088818C3008F041C09C
:1007E0001A8561E0812F0E94BD028881282F30E0A8
:1007F000F901EE0FFF1FE20FF31FE551FE4F1F73CC
:100800009081907C912B908319821A822CE0622F28
:100810000E946C0C829FB001112430E020E0AB01FB
:10082000420F531FFA01EE0FFF1FE40FF51FE551B2
:10083000FE4F908196FD08C02F5F3F4F2C30310551
:1008400071F790E00E948103E8818E2F90E0FC0117
:10085000EE0FFF1FE80FF91FE551FE4F8081806406
:100860008083DF91CF911F9108951F93CF93DF93E2
:10087000EC018A858F3F09F44AC06F8170E0CE0198
:100880000E94050388818C3008F041C01A8561E020
:10089000812F0E94BD028881282F30E0F901EE0FE0
:1008A000FF1FE20FF31FE551FE4F1F739081907CF5
:1008B000912B908319821A822CE0622F0E946C0C7B
:1008C000829FB001112430E020E0AB01420F531FA2
:1008D000FA01EE0FFF1FE40FF51FE551FE4F908167
:1008E00096FD08C02F5F3F4F2C30310571F790E027
:1008F0000E948103E8818E2F90E0FC01EE0FFF1F24
:10090000E80FF91FE551FE4F8081806480838F8559
:10091000882339F061E08889DF91CF911F910C9491
:10092000BD02DF91CF911F910895CF93DF93EC012A
:1009300089810E9466029C0191E02115310509F42C
:1009400090E08A81891309C08B81891751F09B83BC
:1009500083E0232B09F482E088839A83DF91CF918F
:10096000089581E0232BC1F71882F7CF42E050E0D1
:1009700066E171E08EE491E00C9430010F931F93D7
:10098000CF93DF938C01D0E0C0E0F801EC0FFD1FA6
:100990006491662341F08EE491E00E94D001892B9E
:1009A00011F02196F2CF0E94B6048C0F9D1FDF91AB
:1009B000CF911F910F9108951F920F920FB60F9232
:1009C00011242F933F934F935F936F937F938F9354
:1009D0009F93AF93BF93EF93FF938EE491E00E94B8
:1009E000AE01FF91EF91BF91AF919F918F917F9158
:1009F0006F915F914F913F912F910F900FBE0F908C
:100A00001F9018951F920F920FB60F9211242F93DB
:100A10008F939F93EF93FF93E0915E01F0915F01BD
:100A20008081E0916401F091650182FD1BC090819D
:100A3000809167018F5F8F7320916801821741F069
:100A4000E0916701F0E0E25BFE4F958F80936701D4
:100A5000FF91EF919F918F912F910F900FBE0F906B
:100A60001F9018958081F4CF1F920F920FB60F92AE
:100A700011242F933F938F939F93AF93BF938091B4
:100A8000360190913701A0913801B0913901309130
:100A9000350123E0230F2D3758F50196A11DB11D17
:100AA000209335018093360190933701A09338014C
:100AB000B093390180913F0190914001A091410193
:100AC000B09142010196A11DB11D80933F01909309
:100AD0004001A0934101B0934201BF91AF919F911A
:100AE0008F913F912F910F900FBE0F901F901895EF
:100AF00026E8230F0296A11DB11DD2CF1F920F929F
:100B00000FB60F9211242F933F934F935F936F93E0
:100B10007F938F939F93AF93BF93CF93DF93EF9385
:100B2000FF9380913401C0910F02D0E087FF24C071
:100B30001092850010928400809134018F5F809321
:100B4000340180913401082E000C990B8C179D07FD
:100B500024F4809134018C30C4F180918400909110
:100B60008500049680349C4908F47AC08091840002
:100B700090918500049676C080913401082E000C77
:100B8000990B8C179D07C4F6E09134018E2FEE0F60
:100B9000990BFC01EE0FFF1FE80FF91FE551FE4F07
:100BA000808186FFC9CFE09134018E2FEE0F990B23
:100BB000FC01EE0FFF1FE80FF91FE551FE4F80818A
:100BC00060E08F730E948F02B7CF20918400309134
:100BD0008500E09134018E2FEE0F990BFC01EE0F92
:100BE000FF1FE80FF91FE551FE4F81819281820FAF
:100BF000931F9093890080938800E09134018E2F99
:100C0000EE0F990BFC01EE0FFF1FE80FF91FE551E6
:100C1000FE4F808186FF11C0E09134018E2FEE0FD0
:100C2000990BFC01EE0FFF1FE80FF91FE551FE4F76
:100C3000808161E08F730E948F02FF91EF91DF91BD
:100C4000CF91BF91AF919F918F917F916F915F9164
:100C50004F913F912F910F900FBE0F901F901895BD
:100C600080E49CE990938900809388008FEF8093C3
:100C70003401E3CF109251011092500188EE93E0BD
:100C8000A0E0B0E08093520190935301A0935401EF
:100C9000B093550188E091E090934F0180934E010D
:100CA00085EC90E090935B0180935A0184EC90E096
:100CB00090935D0180935C0180EC90E090935F01E4
:100CC00080935E0181EC90E09093610180936001DC
:100CD00082EC90E0909363018093620186EC90E057
:100CE00090936501809364011092670110926801EE
:100CF0001092690110926A011092630210926402CC
:100D000062E081E10E94BD0281E180936202109263
:100D10005F021092600262E082E10E94BD0282E105
:100D200080935E0210925B0210925C0262E080E1AE
:100D30000E94BD0280E180935A02109252021092EA
:100D4000530210925402109255021092560284E0FF
:100D500080934C0282E380934F0284E6809350029A
:100D600080910F028C3008F06BC091E0980F909347
:100D70000F028093320290E0FC01EE0FFF1FE80F9C
:100D8000F91FE551FE4F88EB9BE0928381830E941F
:100D9000F902609344027093450280934602909357
:100DA000470288E080933C028AE080933D028BE416
:100DB00080933E0289E680933F028AE58093400259
:100DC0008093390281E08093430280910F028C303E
:100DD000D8F591E0980F90930F0280931C0290E059
:100DE000FC01EE0FFF1FE80FF91FE551FE4F88EBE6
:100DF0009BE0928381830E94F90260932E0270939C
:100E00002F02809330029093310289E08093260272
:100E10008AE0809327028BE48093280289E68093FE
:100E200029028AE580932A028093230281E080933D
:100E30002D0210921B02809310021092120208954C
:100E40008FEF80933202A3CF8FEF80931C02D3CF1A
:100E5000CF93DF93CDB7DEB728970FB6F894DEBFF8
:100E60000FBECDBF789484B5826084BD84B58160A7
:100E700084BD85B5826085BD85B5816085BD809165
:100E80006E00816080936E001092810080918100DD
:100E900082608093810080918100816080938100D5
:100EA000809180008160809380008091B100846097
:100EB0008093B1008091B00081608093B0008091F8
:100EC0007A00846080937A0080917A0082608093B7
:100ED0007A0080917A00816080937A0080917A0014
:100EE000806880937A001092C10061E082E00E94E5
:100EF000BD0261E083E00E94BD0261E084E00E94E7
:100F0000BD0261E085E00E94BD0261E086E00E94D2
:100F1000BD0262E087E00E94BD0261E088E00E94BD
:100F2000BD0261E089E00E94BD0262E08AE00E94A9
:100F3000BD0262E08BE00E94BD0262E08CE00E9494
:100F4000BD0261E08DE00E94BD0260E08EE00E9483
:100F5000BD0260E08FE00E94BD0262E080E10E947D
:100F6000BD0262E081E10E94BD0262E082E10E9476
:100F7000BD0260E084E10E94BD0260E085E10E9464
:100F8000BD02E0915E01F0915F0182E08083E0911B
:100F90005A01F0915B011082E0915C01F0915D01DA
:100FA00080E1808310926601E0916201F09163011B
:100FB00086E08083E0916001F09161018081806131
:100FC0008083E0916001F09161018081886080837D
:100FD000E0916001F0916101808180688083E091FF
:100FE0006001F091610180818F7D80834AE150E052
:100FF00069E171E08EE491E00E9430010E94B60444
:1010000061E080914C020E94BD0220914C0230E0D0
:10101000F901E255FF4F8491F901E656FF4FE49143
:10102000E0934C02E82FF0E0EE0FFF1FE057FF4F78
:1010300085919491909358028093570282E392E0B5
:101040000E9435048CE192E00E94350460E082E366
:1010500092E00E94E30360E08CE192E00E94E303EF
:101060001092120281E08093100280931B0281E6AD
:1010700092E00E9495048DE592E00E94950489E536
:1010800092E00E94950460E1262E67E2362E78E811
:10109000872E73E1972EA12CB12CE8EE4E2EE3E0C3
:1010A0005E2E612C712C0E94F902E0903B01F090C1
:1010B0003C0100913D0110913E019B01AC012E19B4
:1010C0003F09400B510B243131054105510560F1B9
:1010D00060933B0170933C0180933D0190933E01EE
:1010E00087E00E946602892B31F431E03093490198
:1010F00044E640933A0180913A01882319F08150E7
:1011000080933A0180913A01811102C01092490105
:1011100081E692E00E9495048DE592E00E9495049C
:1011200089E592E00E94950480916102833019F470
:1011300051E05093610290916102923011F410924B
:10114000610280934D0180915D02833019F491E03A
:1011500090935D0290915D02923011F410925D02C5
:1011600080934C0180915902833019F4A1E0A0933F
:10117000590290915902923011F4109259028093C1
:1011800048010E94F902E0904401F090450100916D
:101190004601109147019B01AC012E193F09400BFC
:1011A000510BE0900001F0900101009102011091BB
:1011B00003012E153F054007510708F450C0609306
:1011C00044017093450180934601909347018091BB
:1011D0004A0190914B01891718F48F5F80934A015F
:1011E00080914A01981718F4815080934A018091A8
:1011F0004A0190914301891791F180934301682F2F
:10120000853608F064E660934E0220914F028B30E1
:10121000E8F0C22ED12CF12CE12C2091500230E0CC
:1012200050E040E02C193D094E095F0970E090E064
:1012300080E06A507109810991090E945C0C2AE5DD
:1012400030E040E050E00E94F90B2C0D622F70E07E
:10125000C1010E94780C70934B0260934A02809106
:10126000570290915802892B09F478C03FB7F8943F
:1012700080913F0190914001A0914101B0914201C4
:1012800026B5A89B05C02F3F19F00196A11DB11DE1
:101290003FBFBA2FA92F982F8827820F911DA11D1C
:1012A000B11D42E0880F991FAA1FBB1F4A95D1F7B5
:1012B0004091530250915402609155027091560230
:1012C0008C019D01041B150B260B370B4091480226
:1012D0005091490270E060E00417150726073707B0
:1012E000E8F18093530290935402A0935502B09377
:1012F000560280915202811119C080914E028823BA
:10130000A9F0E0915702F0915802808190914C022F
:10131000892B808380914E0280934D0280914A02F6
:1013200090914B029093490280934802909152020F
:1013300080914D0298130AC0E0915702F091580233
:10134000908180914C028095892380838091520204
:101350008F5F853608F088C0809352020E94F902A0
:1013600000913502109136022091370230913802F7
:10137000061717072807390720F482E392E00E9436
:1013800093030E94F90200911F0210912002209104
:10139000210230912202061717072807390720F487
:1013A0008CE192E00E94930380914D01811120C055
:1013B00080914C0181111CC010921202FF24F39401
:1013C000F0921002109211020E94F902609313022F
:1013D0007093140280931502909316028092170264
:1013E00090921802A0921902B0921A02F0921B0277
:1013F00080911102811122C00E94F9020091130212
:10140000109114022091150230911602601B710B8D
:10141000820B930B00911702109118022091190270
:1014200030911A02601771078207930718F001E0E4
:101430000093110280911102882349F080911B02D0
:10144000823009F42AC198F4813009F473C080E035
:1014500090E0892B09F427CE0E949A01882309F491
:1014600022CE0E9400001FCE1092520277CF84300D
:1014700009F499C1853059F7809110021092100239
:101480008823F9F00E941F0124EB30E0DC010E9468
:101490008C0C2FEF33E040E050E00E94F90B2C5E03
:1014A0003F4F4F4F5F4F2093000130930101409316
:1014B00002015093030110924B0185ED91E00E94CF
:1014C000BE0480914A01811103C021E020931202E1
:1014D00080911202882361F060E085E00E948F0213
:1014E00060E086E00E948F0281EB91E00E94BE04E2
:1014F00080911202882309F4AACF1092120231E0DF
:1015000030931002109211020E94F90260931302AC
:101510007093140280931502909316028092170222
:1015200090921802A0921902B0921A0241E04093E0
:101530001B028DCF8091100210921002882381F03F
:1015400081E191E00E94BE0480914801813041F424
:1015500061E085E00E948F0261E086E00E948F02D8
:1015600080914D01833041F090914C01933021F0F6
:1015700090914801911103C011E0109312029091D3
:101580001202992309F453C0833061F48DEF90E087
:101590000E94BE0461E08DE00E948F0260E086E060
:1015A0000E948F0280914C01833061F48AEE90E0BA
:1015B0000E94BE0460E08DE00E948F0260E085E042
:1015C0000E948F0280914801811116C083ED90E046
:1015D0000E94BE048DE00E94660261E0892B09F042
:1015E00060E08DE00E948F0260E085E00E948F0243
:1015F00060E086E00E948F0282EC90E00E94BE04D0
:101600008DE00E9466020197C1F561E082E392E0FD
:101610000E94E30360E082E392E00E94E30361E062
:1016200083E00E948F0260E082E00E948F0280913E
:101630001202882309F40BCF1092120221E02093AA
:101640001002109211020E94F9026093130270932B
:10165000140280931502909316028CE291E0A0E0B0
:10166000B0E08093170290931802A0931902B093F0
:101670001A0292E090931B02EACE60E082E392E0CD
:101680000E94E30361E082E392E00E94E30360E0F2
:1016900083E00E948F0261E0C7CF80911002109218
:1016A0001002882391F10E941F0121E930E0DC0142
:1016B0000E948C0C2FEF33E040E050E00E94F90BC9
:1016C0002B5F3F4F4F4F5F4F20930001309301013D
:1016D0004093020150930301A4E6A0934B010E94A2
:1016E000F902609313027093140280931502909391
:1016F00016024092170250921802609219027092DC
:101700001A0286E491E00E94BE0480914901811191
:101710001EC00E94F9020091130210911402209140
:10172000150230911602601B710B820B930B009116
:101730001702109118022091190230911A026017B5
:1017400071078207930718F0B1E0B09312028091FD
:101750001202882321F08BE291E00E94BE04809166
:101760001202882309F473CE10921202EE24E3943D
:10177000E0921002109211020E94F902609313028B
:1017800070931402809315029093160240921702F0
:10179000509218026092190270921A0284E0F82E98
:1017A000F0921B0254CE80911002109210028823F6
:1017B00021F084E891E00E94BE04809149018130CB
:1017C00011F48093120280911202882321F086E6A0
:1017D00091E00E94BE0480911202882309F437CE62
:1017E0001092120201E00093100215E010931B0208
:1017F0002ECE052E97FB1EF400940E94100C57FD70
:1018000007D00E942B0C07FC03D04EF40C94100C54
:1018100050954095309521953F4F4F4F5F4F08951C
:1018200090958095709561957F4F8F4F9F4F08954C
:101830000E944D0CA59F900DB49F900DA49F800D0C
:10184000911D11240895B7FF0C94180C0E94180CD8
:10185000821B930B0895A1E21A2EAA1BBB1BFD014C
:101860000DC0AA1FBB1FEE1FFF1FA217B307E4077F
:10187000F50720F0A21BB30BE40BF50B661F771FD7
:10188000881F991F1A9469F76095709580959095B7
:101890009B01AC01BD01CF010895A29FB001B39F90
:1018A000C001A39F700D811D1124911DB29F700D69
:1018B000811D1124911D0895DB018F939F930E9438
:1018C000180CBF91AF91A29F800D911DA39F900D09
:1018D000B29F900D11240895991B79E004C0991FBF
:1018E000961708F0961B881F7A95C9F7809508957A
:1018F00097FB072E16F4009407D077FD09D00E94BD
:10190000930C07FC05D03EF4909581959F4F089568
:10191000709561957F4F08950E944D0CB7FF089513
:10192000821B930B0895AA1BBB1B51E107C0AA1F82
:10193000BB1FA617B70710F0A61BB70B881F991F70
:101940005A95A9F780959095BC01CD010895EE0FA9
:10195000FF1F0590F491E02D0994F894FFCF6400E7
:10196000000000000000D00130015D011D028E0169
:101970006C0180010D0A00323032322D30312D31B0
:10198000302032313A34313A32342E363931393826
:02199000340021
:107E0000112484B714BE81FFF0D085E080938100F7
:107E100082E08093C00088E18093C10086E0809377
:107E2000C20080E18093C4008EE0C9D0259A86E02C
:107E300020E33CEF91E0309385002093840096BBD3
:107E4000B09BFECF1D9AA8958150A9F7CC24DD24C4
:107E500088248394B5E0AB2EA1E19A2EF3E0BF2EE7
:107E6000A2D0813461F49FD0082FAFD0023811F036
:107E7000013811F484E001C083E08DD089C08234E0
:107E800011F484E103C0853419F485E0A6D080C0E4
:107E9000853579F488D0E82EFF2485D0082F10E0AE
:107EA000102F00270E291F29000F111F8ED06801E7
:107EB0006FC0863521F484E090D080E0DECF843638
:107EC00009F040C070D06FD0082F6DD080E0C81688
:107ED00080E7D80618F4F601B7BEE895C0E0D1E017
:107EE00062D089930C17E1F7F0E0CF16F0E7DF06D8
:107EF00018F0F601B7BEE89568D007B600FCFDCFD4
:107F0000A601A0E0B1E02C9130E011968C91119780
:107F100090E0982F8827822B932B1296FA010C0160
:107F200087BEE89511244E5F5F4FF1E0A038BF0790
:107F300051F7F601A7BEE89507B600FCFDCF97BE46
:107F4000E89526C08437B1F42ED02DD0F82E2BD052
:107F50003CD0F601EF2C8F010F5F1F4F84911BD097
:107F6000EA94F801C1F70894C11CD11CFA94CF0C13
:107F7000D11C0EC0853739F428D08EE10CD085E9AC
:107F80000AD08FE07ACF813511F488E018D01DD067
:107F900080E101D065CF982F8091C00085FFFCCF94
:107FA0009093C60008958091C00087FFFCCF809118
:107FB000C00084FD01C0A8958091C6000895E0E648
:107FC000F0E098E1908380830895EDDF803219F02E
:107FD00088E0F5DFFFCF84E1DECF1F93182FE3DFCA
:107FE0001150E9F7F2DF1F91089580E0E8DFEE27F6
:047FF000FF270994CA
:027FFE00040479
:00000001FF
